:1000000010C017C016C015C014C013C012C011C054
:1000100010C00FC00EC00DC00CC00BC00AC009C07C
:1000200008C011241FBECFE5D2E0DEBFCDBF51D442
:10003000E1C5E6CFCF93DF93CDB7DEB728970FB6F4
:10004000F894DEBF0FBECDBF6D837E838F8398870C
:1000500019821A821B821C820BC089819A81AB8112
:10006000BC810196A11DB11D89839A83AB83BC839A
:1000700089819A81AB81BC814D815E816F81788558
:1000800084179507A607B70744F3000000002896D9
:100090000FB6F894DEBF0FBECDBFDF91CF910895AC
:1000A000CF93DF9300D000D0CDB7DEB79A8389839A
:1000B0007C836B8389819A81892B99F48AE390E010
:1000C000FC018081282F81E090E00B8002C0880F26
:1000D000991F0A94E2F7282B8AE390E0FC01208321
:1000E00012C087E390E0FC018081282F81E090E03E
:1000F0000B8002C0880F991F0A94E2F7282B87E330
:1001000090E0FC01208300000F900F900F900F9063
:10011000DF91CF910895CF93DF9300D000D0CDB77A
:10012000DEB79A8389837C836B8389819A81892B4B
:10013000A1F48AE390E0FC018081282F81E090E027
:100140000B8002C0880F991F0A94E2F7809528233C
:100150008AE390E0FC01208313C087E390E0FC0178
:100160008081282F81E090E00B8002C0880F991FCA
:100170000A94E2F78095282387E390E0FC0120832E
:1001800000000F900F900F900F90DF91CF91089586
:10019000CF93DF9300D000D0CDB7DEB79A838983A9
:1001A0007C836B8389819A81892B99F48BE390E01E
:1001B000FC018081282F81E090E00B8002C0880F35
:1001C000991F0A94E2F7282B8BE390E0FC0120832F
:1001D00012C088E390E0FC018081282F81E090E04C
:1001E0000B8002C0880F991F0A94E2F7282B88E33E
:1001F00090E0FC01208300000F900F900F900F9073
:10020000DF91CF910895CF93DF9300D000D0CDB789
:10021000DEB79A8389837C836B8389819A81892B5A
:10022000A1F48BE390E0FC018081282F81E090E035
:100230000B8002C0880F991F0A94E2F7809528234B
:100240008BE390E0FC01208313C088E390E0FC0185
:100250008081282F81E090E00B8002C0880F991FD9
:100260000A94E2F78095282388E390E0FC0120833C
:1002700000000F900F900F900F90DF91CF91089595
:10028000CF93DF9300D000D0CDB7DEB79A838983B8
:100290007C836B8389819A81892B39F489E390E08F
:1002A000FC018081882F90E006C086E390E0FC018D
:1002B0008081882F90E021E030E00B8002C0220F87
:1002C000331F0A94E2F7822393230F900F900F902D
:1002D0000F90DF91CF910895CF93DF9300D000D09E
:1002E000CDB7DEB79C838B8363E070E080E090E065
:1002F000D7DE1A82198219C063E070E080E090E0D6
:1003000047DF60E47CE980E090E094DE63E070E049
:1003100080E090E078DF60E47CE980E090E08ADED5
:1003200089819A8101969A83898329813A818B8177
:100330009C812817390704F360E878E381E090E0B6
:1003400079DED7CFCF93DF9300D000D000D0CDB7E8
:10035000DEB79A8389837C836B835E834D832D8193
:100360003E8189819A81B9019BDE2B813C81898103
:100370009A81B90195DE000026960FB6F894DEBF8B
:100380000FBECDBFDF91CF910895CF93DF9300D003
:1003900000D000D0CDB7DEB79A8389837C836B838E
:1003A0005E834D832B813C8189819A81B901B3DEC3
:1003B0002D813E8189819A81B90172DE2B813C8138
:1003C00089819A81B9016CDE000026960FB6F894F7
:1003D000DEBF0FBECDBFDF91CF910895CF93DF93E6
:1003E00000D000D000D0CDB7DEB79A8389837C835C
:1003F0006B835E834D832D813E8189819A81B90112
:100400008ADE2B813C8189819A81B90184DE2D812C
:100410003E8189819A81B90143DE2D813E818981A6
:100420009A81B90178DE000026960FB6F894DEBFF7
:100430000FBECDBFDF91CF910895CF93DF93CDB79E
:10044000DEB728970FB6F894DEBF0FBECDBF9A83F4
:1004500089837C836B835E834D8338872F832D81D3
:100460003E8189819A81B90156DE2B813C81898147
:100470009A81B90150DE2B813C8189819A81B90131
:100480000FDE000028960FB6F894DEBF0FBECDBF7A
:10049000DF91CF9108950F931F93CF93DF93CDB743
:1004A000DEB72C970FB6F894DEBF0FBECDBF9C838E
:1004B0008B837E836D8358874F833A8729871C8778
:1004C0000B8789859A8501979A8389832AC08B85B2
:1004D0009C85098002C0959587950A94E2F7817002
:1004E0009927892B39F02F8138858B819C81B9011F
:1004F00012DE06C02F8138858B819C81B901D0DD49
:100500002D813E818B819C81B90105DE2D813E814B
:100510008B819C81B901C4DD89819A8101979A837D
:10052000898389819A81992394F6000000002C9692
:100530000FB6F894DEBF0FBECDBFDF91CF911F91F4
:100540000F9108950F931F93CF93DF93CDB7DEB72D
:100550002A970FB6F894DEBF0FBECDBF9A8389836A
:100560007C836B835E834D8338872F831A8709874B
:100570004D815E812B813C8189819A81B901E2DEC6
:100580002F8138854D815E816B817C8189819A8143
:10059000890127E030E07FDF4D815E816B817C81C6
:1005A00089819A8100E010E021E030E074DF4D8124
:1005B0005E816B817C8189819A8121E030E03DDF21
:1005C0002D813E8189819A81B9016ADD29853A852B
:1005D0004D815E816B817C8189819A81890128E0CE
:1005E00030E059DF4D815E816B817C8189819A8108
:1005F00022E030E022DF00002A960FB6F894DEBF3A
:100600000FBECDBFDF91CF911F910F9108950F9332
:100610001F93CF93DF93CDB7DEB72A970FB6F89429
:10062000DEBF0FBECDBF9A8389837C836B835E83DD
:100630004D8338872F831A870987E985FA852F81AB
:1006400038854D815E816B817C8189819A818F01A2
:1006500079DF4D815E812B813C8189819A81B9014D
:10066000BDDE00002A960FB6F894DEBF0FBECDBFE8
:10067000DF91CF911F910F910895EF92FF920F9309
:100680001F93CF93DF93CDB7DEB72C970FB6F894B7
:10069000DEBF0FBECDBF9A8389837C836B835E836D
:1006A0004D8338872F831A870987FC86EB864D8117
:1006B0005E812B813C8189819A81B90143DE2F8142
:1006C00038854D815E816B817C8189819A81890128
:1006D00027E030E0E0DE4D815E816B817C818981A5
:1006E0009A8100E010E021E030E0D5DE4D815E81AE
:1006F0006B817C8189819A8121E030E09EDE2D81B1
:100700003E8189819A81B901CBDC29853A854D8169
:100710005E816B817C8189819A81890128E030E04A
:10072000BADE4D815E816B817C8189819A8122E074
:1007300030E083DE2D813E8189819A81B901B0DC70
:100740002B853C854D815E816B817C8189819A817D
:10075000890128E030E09FDE4D815E816B817C81E4
:1007600089819A8123E030E068DE4D815E812B81B2
:100770003C8189819A81B90131DE00002C960FB647
:10078000F894DEBF0FBECDBFDF91CF911F910F91C7
:10079000FF90EF9008950F931F93CF93DF93CDB702
:1007A000DEB72E970FB6F894DEBF0FBECDBF9E8387
:1007B0008D8378876F835A8749873C872B871E876D
:1007C0000D87ED85FE852B853C8549855A856F8192
:1007D00078858D819E818F01B5DE49855A852F816F
:1007E00038858D819E81B901D0DD2B853C85498579
:1007F0005A856F8178858D819E81890127E030E05F
:100800004ADE49855A856F8178858D819E8101E018
:1008100010E021E030E03FDE49855A856F81788520
:100820008D819E8123E030E008DE1A8219821C82CD
:100830001B8224C089819A81880F991F9A8389839A
:100840002F8138858D819E81B90165DC29853A85A6
:100850008D819E81B90114DD892B29F089819A81CE
:1008600081609A8389832F8138858D819E81B9012A
:1008700017DC8B819C8101969C838B838B819C816F
:100880000897C4F229853A858D819E81B90143DCA0
:100890002F8138858D819E81B9013DDC2F8138857E
:1008A0008D819E81B901FCDB49855A852F81388570
:1008B0008D819E81B90192DD89819A812E960FB634
:1008C000F894DEBF0FBECDBFDF91CF911F910F9186
:1008D0000895EF92FF920F931F93CF93DF93CDB7BD
:1008E000DEB78AE390E0FC01108287E390E0FC0130
:1008F000108260E375E780E090E09CDB01E210E0AD
:1009000020E730E041E050E060E070E080E090E01F
:100910007EDE01E810E020E730E041E050E060E0FA
:1009200070E080E090E073DE00EE10E020E730E061
:1009300041E050E060E070E080E090E068DE0F2E83
:10094000FAEAEF2EF12CF02D00E010E020E730E085
:1009500041E050E060E070E080E090E08EDE0F2E3D
:10096000F5E5EF2EF12CF02D02E010E020E730E06D
:1009700041E050E060E070E080E090E07EDE0F2E2D
:10098000FAEAEF2EF12CF02D04E010E020E730E041
:1009900041E050E060E070E080E090E06EDE0F2E1D
:1009A000F5E5EF2EF12CF02D06E010E020E730E029
:1009B00041E050E060E070E080E090E05EDE0F2E0D
:1009C000FAEAEF2EF12CF02D08E010E020E730E0FD
:1009D00041E050E060E070E080E090E04EDE0F2EFD
:1009E000F5E5EF2EF12CF02D0AE010E020E730E0E5
:1009F00041E050E060E070E080E090E03EDE0F2EED
:100A0000FAEAEF2EF12CF02D0CE010E020E730E0B8
:100A100041E050E060E070E080E090E02EDE0F2EDC
:100A2000F5E5EF2EF12CF02D0EE010E020E730E0A0
:100A300041E050E060E070E080E090E01EDEE12CFC
:100A4000F12C00E010E028E630E041E050E060E00A
:100A500070E081E090E011DE0F2EF0E9EF2EF12C36
:100A6000F02D07E010E028E630E041E050E060E0E3
:100A700070E081E090E001DE60EA76E881E090E0FD
:100A8000D9DA00E010E028E630E041E050E060E034
:100A900070E081E090E07FDE7C0100E010E020E784
:100AA00030E041E050E060E070E080E090E0E5DDC3
:100AB00001E010E028E630E041E050E060E070E066
:100AC00081E090E068DE7C0102E010E020E730E0A9
:100AD00041E050E060E070E080E090E0CEDD02E0D8
:100AE00010E028E630E041E050E060E070E081E0B6
:100AF00090E051DE7C0104E010E020E730E041E0CE
:100B000050E060E070E080E090E0B7DD03E010E0EE
:100B100028E630E041E050E060E070E081E090E005
:100B20003ADE7C0106E010E020E730E041E050E0F2
:100B300060E070E080E090E0A0DD04E010E028E6F6
:100B400030E041E050E060E070E081E090E023DEE2
:100B50007C0108E010E020E730E041E050E060E098
:100B600070E080E090E089DD05E010E028E630E00C
:100B700041E050E060E070E081E090E00CDE7C015C
:100B80000AE010E020E730E041E050E060E070E093
:100B900080E090E072DD06E010E028E630E041E021
:100BA00050E060E070E081E090E0F5DD7C010CE079
:100BB00010E020E730E041E050E060E070E080E0ED
:100BC00090E05BDD07E010E028E630E041E050E037
:100BD00060E070E081E090E0DEDD7C010EE010E09E
:100BE00020E730E041E050E060E070E080E090E03D
:080BF00044DD47CFF894FFCF6C
:00000001FF
