:1000000010C026C721C020C048C71EC01DC01CC0CC
:100010001BC01AC019C018C017C016C015C014C024
:1000200013C011241FBECFE5D2E0DEBFCDBF10E06C
:10003000A0E6B0E0EAE2F0E102C005900D92A63938
:10004000B107D9F74ED7EFC7DBCFCF93DF9300D0FF
:1000500000D0CDB7DEB7462F572FBC0119821A82C8
:100060001B821C8289819A81AB81BC818417950790
:10007000A607B7073CF00F900F900F900F90DF91FD
:10008000CF91089589819A81AB81BC810196A11D90
:10009000B11D89839A83AB83BC83E4CF21E030E038
:1000A00001C0220F6A95EAF7892B21F48AB3822BCB
:1000B0008ABB089587B3822B87BB089521E030E087
:1000C00001C0220F6A95EAF72095892B21F48AB3A3
:1000D00082238ABB089587B3822387BB089521E0DA
:1000E00030E001C0220F6A95EAF7892B21F48BB327
:1000F000822B8BBB089588B3822B88BB089521E0A7
:1001000030E001C0220F6A95EAF72095892B21F48F
:100110008BB382238BBB089588B3822388BB089559
:10012000892B61F429B330E081E090E002C0880FB0
:10013000991F6A95E2F782239323089526B3F3CF9C
:100140000F931F93CF93DF93D82FC92F8B01BA0141
:10015000A5DFB8018D2F9C2FDF91CF911F910F91BB
:100160009DCFEF92FF920F931F93CF93DF93D82FE2
:10017000C92F8B017A01A2DFB7018D2F9C2F8EDF53
:10018000B8018D2F9C2FDF91CF911F910F91FF9080
:10019000EF9084CFEF92FF920F931F93CF93DF9353
:1001A000D82FC92F7B018A01BA0188DFB7018D2FB3
:1001B0009C2F84DFB8018D2F9C2F70DFB8018D2F0D
:1001C0009C2FDF91CF911F910F91FF90EF9076CFF1
:1001D0000F931F93CF93DF93D82FC92F8B01BA01B1
:1001E0006DDFB8018D2F9C2F69DFB8018D2F9C2FFB
:1001F000DF91CF911F910F9151CF8F929F92AF922C
:10020000BF92CF92DF92EF92FF920F931F93CF9303
:10021000DF93F82EE92ED62EC72EB42EA52E480138
:10022000E9012197D7FF0DC0DF91CF911F910F9169
:10023000FF90EF90DF90CF90BF90AF909F908F9006
:100240000895C4010C2E02C0959587950A94E2F793
:100250006B2D7A2D80FF0EC08F2D9E2D2FDF6D2DE3
:100260007C2D8F2D9E2D2ADF6D2D7C2D8F2D9E2D8B
:1002700015DFD7CF8F2D9E2D11DFF1CF8F929F925B
:10028000AF92BF92CF92DF92EF92FF920F931F93A4
:10029000CF93DF93D82FC92F6B017A014901580101
:1002A0004FDF840127E030E0A701B6018D2F9C2F9E
:1002B000A4DF10E000E021E030E0A701B6018D2FBF
:1002C0009C2F9BDFA701B6018D2F9C2F81DFB701EB
:1002D0008D2F9C2FE3DE850128E030E0A701B601D9
:1002E0008D2F9C2F8ADFA701B6018D2F9C2FDF91C8
:1002F000CF911F910F91FF90EF90DF90CF90BF9023
:10030000AF909F908F9064CFCF92DF92EF92FF9249
:100310000F931F93CF93DF93D82FC92F7B016A01CF
:10032000ADDFA601B7018D2F9C2FDF91CF911F91DB
:100330000F91FF90EF90DF90CF902CCF6F927F9234
:100340008F929F92AF92BF92CF92DF92EF92FF92E5
:100350000F931F93CF93DF93D82FC92F5B016A01AF
:1003600039014801EDDE830127E030E0A601B50147
:100370008D2F9C2F42DF10E000E021E030E0A6014D
:10038000B5018D2F9C2F39DFA601B5018D2F9C2F34
:100390001FDFB6018D2F9C2F81DE840128E030E025
:1003A000A601B5018D2F9C2F28DFA601B5018D2F49
:1003B0009C2F0EDFB6018D2F9C2F70DE870128E069
:1003C00030E0A601B5018D2F9C2F17DFA601B501E6
:1003D0008D2F9C2FFDDEA601B5018D2F9C2FDF9167
:1003E000CF911F910F91FF90EF90DF90CF90BF9032
:1003F000AF909F908F907F906F90CCCEAF92BF9236
:10040000CF92DF92EF92FF920F931F93CF93DF93E0
:10041000D82FC92F7B016A01590130DFA601B7012E
:100420008D2F9C2F9EDE850127E030E0A601B701CD
:100430008D2F9C2FE2DE01E010E021E030E0A601EC
:10044000B7018D2F9C2FD9DEA601B7018D2F9C2FD0
:10045000BFDE98E0A92EB12C10E000E0000F111FC4
:10046000B7018D2F9C2F2ADEB6018D2F9C2F58DED1
:10047000892B09F00160B7018D2F9C2F0FDE81E0E1
:10048000A81AB10859F7B6018D2F9C2F17DEB701B6
:100490008D2F9C2F13DEB7018D2F9C2FFFDDA60122
:1004A000B7018D2F9C2F76DEC801DF91CF911F9170
:1004B0000F91FF90EF90DF90CF90BF90AF90089595
:1004C000EF92FF920F931F938C01000F111FF12CDD
:1004D000E12C20E730E041E050E070E060E090E0A7
:1004E00080E02CDF1F910F91FF90EF900895EF9225
:1004F000FF920F931F938C01000F111F9CE0E92EB8
:10050000F12C20E730E041E050E070E060E090E066
:1005100080E014DF1F910F91FF90EF900895AF924C
:10052000BF92CF92DF92EF92FF920F931F93CF93E0
:10053000DF93EC015B016A01FB01E058FF4F808112
:10054000FA01E058FF4FE0802081CC0FDD1FE594D9
:100550000E2C000CFF08022E000C330B3695322FA8
:10056000222737952795E22AF32A082E000C990BAB
:1005700054E0880F991F5A95E1F7E82AF92A8E016D
:1005800020E730E041E050E070E060E090E080E0A3
:10059000D5DEF501E557FF4F8081F601E557FF4FA6
:1005A000E0802081E5940E2C000CFF08022E000C48
:1005B000330B3695322F222737952795E22AF32AD7
:1005C000082E000C990B74E0880F991F7A95E1F7BB
:1005D000E82AF92A0E5F1F4F20E730E041E050E0A3
:1005E00070E060E090E080E0A9DEDF91CF911F91A4
:1005F0000F91FF90EF90DF90CF90BF90AF90089554
:10060000AB014F70552724E0759567952A95E1F762
:1006100086CF9B016AE070E02115310509F0B90130
:100620007ECFAB014F70552724E0759567952A95CD
:10063000E1F7EFCF89B3082E000C990B80959095C8
:10064000892F881F8827881F90E0089586B3869594
:10065000869591E08927817090E0089589B3869509
:10066000869591E08927817090E0089589B38695F9
:100670008695869591E08927817090E00895CF93C3
:10068000DF93D0E0C0E0CE011BDF2196C830D1055A
:10069000D1F784B7877F84BF81B5806481BD81B580
:1006A000886181BD81B58F6281BD789485B7806294
:1006B00085BF8895DF91CF910895EF92FF920F93B8
:1006C0001F93CF93DF938C01EB017A01B3DFF80125
:1006D00020813181892BB1F02C173D0701F1C9012F
:1006E0008F709927E901892B59F42797F801D18355
:1006F000C083DF91CF911F910F91FF90EF900895EC
:100700002197F4CF2E153F0589F3C9018F709927E2
:10071000E901099711F42796E9CF2196E7CFE70180
:10072000E5CFCF92DF92EF92FF920F931F93CF937B
:10073000DF9300D000D000D0CDB7DEB7E1E1EE2EE0
:10074000F12C07E010E028E630E041E050E070E0F6
:1007500060E081E090E0F2DD6DDF892B19F076DF5B
:10076000892BD1F770E9E72EF12C07E010E028E69D
:1007700030E041E050E070E060E081E090E0DEDDFC
:1007800002E010E028E630E041E050E070E060E098
:1007900081E090E033DE9E838D8301E010E028E667
:1007A00030E041E050E070E060E081E090E026DE83
:1007B0009C838B8383E090E083DE84E090E080DEA6
:1007C00010E000E04BDF892B09F437C14FDF892BA4
:1007D00009F433C1ED80FE8002E010E028E630E04D
:1007E00041E050E070E060E081E090E0A7DDEB8068
:1007F000FC8001E010E028E630E041E050E070E0ED
:1008000060E081E090E09ADDF12CE12C10E000E066
:1008100028E630E041E050E070E060E081E090E008
:100820008DDD61E1E62EF12C07E010E028E630E0F6
:1008300041E050E070E060E081E090E07FDD0EDFBD
:10084000892B19F013DF892BD1F750E9E52EF12C14
:1008500007E010E028E630E041E050E070E060E0C2
:1008600081E090E06BDD03E010E028E630E041E05D
:1008700050E070E060E081E090E0C0DD9E838D8319
:1008800005E010E028E630E041E050E070E060E094
:1008900081E090E0B3DD9C838B8304E010E028E6E8
:1008A00030E041E050E070E060E081E090E0A6DD03
:1008B0009A83898310E000E0D1DE892B09F400C11E
:1008C000D5DE892B09F4FCC0ED80FE8003E010E04A
:1008D00028E630E041E050E070E060E081E090E048
:1008E0002DDDEB80FC8005E010E028E630E041E003
:1008F00050E070E060E081E090E020DDE980FA8087
:1009000004E010E028E630E041E050E070E060E014
:1009100081E090E013DD41E1E42EF12C07E010E0EE
:1009200028E630E041E050E070E060E081E090E0F7
:1009300005DD94DE892B19F099DE892BD1F730E99A
:10094000E32EF12C07E010E028E630E041E050E033
:1009500070E060E081E090E0F1DC06E010E028E685
:1009600030E041E050E070E060E081E090E046DDA2
:100970009E838D8390E080E0A3DD81E090E0A0DDA8
:1009800082E090E09DDD85E090E09ADD86E090E0F9
:1009900097DD87E090E094DD61DE892B09F4EEC0FD
:1009A00065DE892B09F4EAC0ED80FE8006E010E0E8
:1009B00028E630E041E050E070E060E081E090E067
:1009C000BDDC23E0C22ED12C81E1E82EF12C07E022
:1009D00010E028E630E041E050E070E060E081E0C7
:1009E00090E0ACDC60E177E280E090E02EDB90E923
:1009F000E92EF12C28E630E041E050E070E060E0C4
:100A000081E090E09BDC60E177E280E090E01DDB3C
:100A100031E0C31AD108C1F681E090E026960FB606
:100A2000F894DEBF0FBECDBFDF91CF911F910F9124
:100A3000FF90EF90DF90CF9001C16D817E8181E0CA
:100A400090E0DEDD6B817C8185E090E0D9DD90E097
:100A500080E001151105B1F44ADD87E090E030DD5A
:100A600060E47CE980E090E0F0DAE4DD892B79F065
:100A700001151105C9F049E550E070E060E0CE01D4
:100A8000039618C01DDD87E090E031DDE9CFDEDDA3
:100A9000892B71F7E3DD892B79F081E090E09C01EF
:100AA000201B310B89018ECE43E250E070E060E004
:100AB000CE01059602DEEECFD9DD892B71F782CE0D
:100AC0006D817E8190E080E0ACDD6B817C8183E094
:100AD00090E0A7DD69817A8186E090E0A2DD0115D2
:100AE000110539F001301105F9F082E090E0E8DC01
:100AF0001EC082E090E0FBDC85E090E0E1DC60E499
:100B00007CE980E090E0A1DA95DD892BA1F0011568
:100B10001105F1F00130110519F141E350E061E0F8
:100B200070E0CE0101961AC082E090E0E0DC85E042
:100B300090E0DDDCE4CF8ADD892B49F797DD892B56
:100B4000B1F0C801019663E070E046D28C01B4CEEA
:100B500047E050E061E070E0CE010596AEDDEECFFB
:100B600042E150E061E070E0CE010396F7CF76DD20
:100B7000892B09F4A1CEC8010296E5CF6D817E8153
:100B800083E090E03DDD60E47CE980E090E05DDAC8
:100B900051DD892B41F049E950E070E060E0CE0181
:100BA00005968BDDF9CE52DD892BA9F7F5CE0F9393
:100BB0001F9382E090E084DC85E090E081DC3ADD08
:100BC000892B29F481E090E01F910F9137C003E059
:100BD00010E028E630E041E050E070E060E081E0C5
:100BE00090E00CDCBC0190E080E01BDD05E010E053
:100BF00028E630E041E050E070E060E081E090E025
:100C0000FDDBBC0183E090E00CDD04E010E028E6B1
:100C100030E041E050E070E060E081E090E0EEDB49
:100C2000BC0186E090E0FDDC11DD892B09F079DD67
:100C300060E47CE980E090E008DAC1CFEF92FF92B7
:100C40000F931F93CF93DF93EC0184B7877F84BF0B
:100C500081B5886181BD11BC82E090E031DC85E026
:100C600090E02EDC80E2E82EF12C02E010E028E695
:100C700030E041E050E070E060E081E090E0BEDB19
:100C8000BC0190E080E0BCDC01E010E028E630E050
:100C900041E050E070E060E081E090E0AFDBBC015B
:100CA00083E090E0ADDC10E000E028E630E041E0D9
:100CB00050E070E060E081E090E0A0DBBC0186E005
:100CC00090E09EDCB7DC892B21F0C0DC892BB9F0E9
:100CD00028DD60E47CE980E090E0B7D981E0E81AA3
:100CE000F10819F6B3DC892B09F0BCCF209749F045
:100CF000DF91CF911F910F91FF90EF90C0CC57DF04
:100D0000E8CFCE01DDDB2196C830D105D1F7DF91E8
:100D1000CF911F910F91FF90EF9008950F931F9324
:100D2000CF93DF93EC0101E010E028E630E041E0F2
:100D300050E070E060E081E090E060DB8C179D07A0
:100D400029F0DF91CF911F910F9199CC7FDC892BF6
:100D500051F390E080E072DFE6CFEF92FF920F93C5
:100D60001F9374DC892B81F001E010E028E630E06D
:100D700041E050E070E060E081E090E03FDB1F91F7
:100D80000F91FF90EF90CACF81E1E82EF12C07E0A0
:100D900010E028E630E041E050E070E060E081E003
:100DA00090E0CCDA60E67AEE80E090E04ED990E90F
:100DB000E92EF12C28E630E041E050E070E060E000
:100DC00081E090E0BBDA60E67AEE80E090E03DD929
:100DD000C8CFCF92DF92EF92FF920F931F93CF93E2
:100DE000DF9301E010E028E630E041E050E070E001
:100DF00060E081E090E002DB7C0102E010E028E6A8
:100E000030E041E050E070E060E081E090E0F6DA50
:100E10006C01C0E7D0E000E610E0899199918C1553
:100E20009D0539F4F801808191818E159F0509F4A3
:100E300094DF0E5F1F4FF0E0C038DF0771F7DF91DE
:100E4000CF911F910F91FF90EF90DF90CF90089579
:100E50001F920F920FB60F9211242F933F934F932F
:100E60005F936F937F938F939F93AF93BF93EF9312
:100E7000FF9381E090E0E2DEFF91EF91BF91AF91AF
:100E80009F918F917F916F915F914F913F912F91A2
:100E90000F900FBE0F901F9018951F920F920FB6D4
:100EA0000F9211242F933F934F935F936F937F93F0
:100EB0008F939F93AF93BF93EF93FF938ADFDFDB13
:100EC000FF91EF91BF91AF919F918F917F916F9122
:100ED0005F914F913F912F910F900FBE0F901F90F8
:100EE000189585B78F7D85BFF8948BB780648BBFCD
:100EF00085B78C7F85BF60E375E780E090E0A5D87B
:100F000010E000E028E630E041E050E070E060E012
:100F100081E090E073DA8038910509F05AC001E26F
:100F200010E020E730E041E050E070E060E090E069
:100F300080E0EAD901E810E020E730E041E050E04D
:100F400070E060E090E080E0DFD900EE10E020E7A4
:100F500030E041E050E070E060E090E080E0D4D923
:100F6000F12CE12C10E000E028E630E041E050E018
:100F700070E060E081E090E0E1D980E9E82EF12CBA
:100F800007E010E028E630E041E050E070E060E08B
:100F900081E090E0D3D991E1E92EF12C28E630E010
:100FA00041E050E070E060E081E090E0C7D960E2AD
:100FB0007EE480E090E049D820E9E22EF12C28E69A
:100FC00030E041E050E070E060E081E090E0B6D9D0
:100FD000A8DB90E080E0089597FB072E16F40094BC
:100FE00006D077FD08D00BD007FC05D03EF49095D5
:100FF00081959F4F0895709561957F4F0895AA1B25
:10100000BB1B51E107C0AA1FBB1FA617B70710F0F3
:10101000A61BB70B881F991F5A95A9F78095909525
:0A102000BC01CD010895F894FFCF44
:10102A0001000000000000000000000000000000B5
:10103A000000FFFFFFFFFFFFFFFFFFFFFFFFFFFFB4
:10104A00030003050206070407060003070607074D
:06105A0003030707070075
:00000001FF
