:1000000010C02AC029C028C027C026C025C024C0CF
:1000100023C022C021C020C01FC01EC01DC01CC0E4
:100020001BC011241FBECFE5D2E0DEBFCDBF10E064
:10003000A0E6B0E0E4E3F8E002C005900D92A4373A
:10004000B107D9F720E0A4E7B0E001C01D92A637C0
:10005000B207E1F798D3ECC3D3CFCF93DF9300D0AF
:1000600000D0CDB7DEB7462F572FBC0119821A82B8
:100070001B821C8289819A81AB81BC818417950780
:10008000A607B7073CF00F900F900F900F90DF91ED
:10009000CF91089589819A81AB81BC810196A11D80
:1000A000B11D89839A83AB83BC83E4CF21E030E028
:1000B00001C0220F6A95EAF7892B21F48AB3822BBB
:1000C0008ABB089587B3822B87BB089521E030E077
:1000D00001C0220F6A95EAF72095892B21F48AB393
:1000E00082238ABB089587B3822387BB089521E0CA
:1000F00030E001C0220F6A95EAF7892B21F48BB317
:10010000822B8BBB089588B3822B88BB089521E096
:1001100030E001C0220F6A95EAF72095892B21F47F
:100120008BB382238BBB089588B3822388BB089549
:10013000892B61F429B330E081E090E002C0880FA0
:10014000991F6A95E2F782239323089526B3F3CF8C
:10015000EC01D39A10E000E00C171D0734F060E8C2
:1001600078E381E090E079DFF5CFDB9A60E47CE929
:1001700080E090E072DFDB9860E47CE980E090E072
:100180006CDF0F5F1F4FE8CF0F931F93CF93DF9369
:10019000D82FC92F8B01BA0189DFB8018D2F9C2F71
:1001A000DF91CF911F910F9181CFEF92FF920F932B
:1001B0001F93CF93DF93D82FC92F8B017A0186DF4E
:1001C000B7018D2F9C2F72DFB8018D2F9C2FDF91EF
:1001D000CF911F910F91FF90EF9068CFEF92FF9218
:1001E0000F931F93CF93DF93D82FC92F7B018A01E1
:1001F000BA016CDFB7018D2F9C2F68DFB8018D2FFE
:100200009C2F54DFB8018D2F9C2FDF91CF911F9130
:100210000F91FF90EF905ACF0F931F93CF93DF93DF
:10022000D82FC92F8B01BA0151DFB8018D2F9C2F18
:100230004DDFB8018D2F9C2FDF91CF911F910F9132
:1002400035CF8F929F92AF92BF92CF92DF92EF9273
:10025000FF920F931F93CF93DF93F82EE92ED62EA4
:10026000C72EB42EA52E4801E9012197D7FF0DC056
:10027000DF91CF911F910F91FF90EF90DF90CF9082
:10028000BF90AF909F908F900895C4010C2E02C034
:10029000959587950A94E2F76B2D7A2D80FF0EC015
:1002A0008F2D9E2D13DF6D2D7C2D8F2D9E2D0EDF1E
:1002B0006D2D7C2D8F2D9E2DF9DED7CF8F2D9E2D70
:1002C000F5DEF1CF8F929F92AF92BF92CF92DF92E5
:1002D000EF92FF920F931F93CF93DF93D82FC92FE5
:1002E0006B017A01490158014FDF840127E030E0BA
:1002F000A701B6018D2F9C2FA4DF10E000E021E0C4
:1003000030E0A701B6018D2F9C2F9BDF21E030E06C
:10031000A701B6018D2F9C2F7FDFB7018D2F9C2F5A
:10032000C5DE850128E030E0A701B6018D2F9C2FA6
:1003300088DF22E030E0A701B6018D2F9C2FDF91EE
:10034000CF911F910F91FF90EF90DF90CF90BF90D2
:10035000AF909F908F9060CFCF92DF92EF92FF92FD
:100360000F931F93CF93DF93D82FC92F7B016A017F
:10037000A9DFA601B7018D2F9C2FDF91CF911F918F
:100380000F91FF90EF90DF90CF9028CF6F927F92E8
:100390008F929F92AF92BF92CF92DF92EF92FF9295
:1003A0000F931F93CF93DF93D82FC92F5B016A015F
:1003B00039014801E9DE830127E030E0A601B501FB
:1003C0008D2F9C2F3EDF10E000E021E030E0A60101
:1003D000B5018D2F9C2F35DF21E030E0A601B5015E
:1003E0008D2F9C2F19DFB6018D2F9C2F5FDE84018E
:1003F00028E030E0A601B5018D2F9C2F22DF22E0FE
:1004000030E0A601B5018D2F9C2F06DFB6018D2FA0
:100410009C2F4CDE870128E030E0A601B5018D2F2E
:100420009C2F0FDF23E030E0A601B5018D2F9C2F1C
:10043000F3DEA601B5018D2F9C2FDF91CF911F9187
:100440000F91FF90EF90DF90CF90BF90AF909F9073
:100450008F907F906F90C2CEAF92BF92CF92DF927B
:10046000EF92FF920F931F93CF93DF93D82FC92F53
:100470007B016A01590126DFA601B7018D2F9C2F50
:1004800094DE850127E030E0A601B7018D2F9C2F77
:10049000D8DE01E010E021E030E0A601B7018D2FA9
:1004A0009C2FCFDE23E030E0A601B7018D2F9C2FDB
:1004B000B3DE98E0A92EB12C10E000E0000F111F70
:1004C000B7018D2F9C2F02DEB6018D2F9C2F30DEC1
:1004D000892B09F00160B7018D2F9C2FE7DD81E0AA
:1004E000A81AB10859F7B6018D2F9C2FEFDDB7017F
:1004F0008D2F9C2FEBDDB7018D2F9C2FD7DDA60113
:10050000B7018D2F9C2F6ADEC801DF91CF911F911B
:100510000F91FF90EF90DF90CF90BF90AF90089534
:10052000EF92FF920F931F938C01000F111FF12C7C
:10053000E12C20E730E041E050E070E060E090E046
:1005400080E024DF1F910F91FF90EF900895AF920C
:10055000BF92CF92DF92EF92FF920F931F93CF93B0
:10056000DF93EC016B015A01FA01E05AFF4F8081E1
:10057000CC0FDD1FE82EE5940E2C000CFF08082E92
:10058000000C990B9695982F882797958795E82AC0
:10059000F92AFB01E05AFF4F8081082E000C990BCD
:1005A00034E0880F991F3A95E1F7E82AF92A8E017D
:1005B00020E730E041E050E070E060E090E080E073
:1005C000E5DEF501E659FF4F8081E82EE5940E2C1B
:1005D000000CFF08082E000C990B9695982F882781
:1005E00097958795E82AF92AF601E659FF4F808109
:1005F000082E000C990B54E0880F991F5A95E1F7CB
:10060000E82AF92A0E5F1F4F20E730E041E050E072
:1006100070E060E090E080E0B9DEDF91CF911F9163
:100620000F91FF90EF90DF90CF90BF90AF90089523
:10063000CF93DF93D0E0C0E0CE0172DF2196C830C7
:10064000D105D1F78FB780688FBF8BB780648BBF20
:1006500085B78C7F85BF85B7806285BF7894889584
:10066000DF91CF9108950F931F93CF93DF93C8EE3F
:10067000D3E002E010E028E630E041E050E070E036
:1006800060E081E090E0E8DEBC019093750080932B
:100690007400AC014F70552784E0759567958A9575
:1006A000E1F790E080E053DF82E090E039DF01E0A5
:1006B00010E028E630E041E050E070E060E081E0EA
:1006C00090E0CADEBC019093750080937400AC0189
:1006D0004F70552794E0759567959A95E1F783E0FB
:1006E00090E035DF85E090E01BDF10E000E028E6D9
:1006F00030E041E050E070E060E081E090E0ACDEAE
:10070000BC019093750080937400AC014F70552725
:1007100024E0759567952A95E1F786E090E017DF6C
:10072000219709F0A6CFB29BA2CFDF91CF911F9165
:100730000F917ECF1F920F920FB60F9211242F931D
:100740003F934F935F936F937F938F939F93AF9359
:10075000BF93EF93FF938BB78F7B8BBF8FB78F7751
:100760008FBF81DFFF91EF91BF91AF919F918F91EB
:100770007F916F915F914F913F912F910F900FBE9D
:100780000F901F9018951ABA17BA60E375E780E0CA
:1007900090E063DC10E000E028E630E041E050E06B
:1007A00070E060E081E090E057DE80389105E1F58F
:1007B00001E210E020E730E041E050E070E060E06E
:1007C00090E080E0C9DD01E810E020E730E041E0A2
:1007D00050E070E060E090E080E0BEDD00EE10E010
:1007E00020E730E041E050E070E060E090E080E041
:1007F000B3DDF12CE12C10E000E028E630E041E030
:1008000050E070E060E081E090E0C0DD80E9E82E3B
:10081000F12C07E010E028E630E041E050E070E025
:1008200060E081E090E0B2DD1EDF90E080E00895BE
:04083000F894FFCF6A
:100834000300030502060704070603070607070368
:040844000307070798
:00000001FF
